:020000040000FA
:0600000067EF00F00000B4
:0800080006EF00F0D8CFE5FF80
:10001000E0CFE5FFE56EF3CFE5FFF4CFE5FFE9CFF5
:10002000E5FFEACFE5FFFACFE5FFFBCFE5FFD9CF4C
:10003000E5FFE1CFD9FFF2AA1BD0F2A419D00E013F
:10004000002B0E010051140A01E189900E010051AC
:10005000280A01E189800E0100513C0A01E18990E2
:100060000E010051FA0A03E189800E01006BF2943F
:10007000E4CFD9FFE4CFFBFFE4CFFAFFE4CFEAFF00
:10008000E4CFE9FFE4CFF4FFE4CFF3FFE450E4CFA3
:10009000E0FFE4CFD8FF1000D9CFE5FFE1CFD9FFD3
:1000A000D580D582D584D596D59AD58CF28AF28C16
:1000B000F28ED58EE4CFD9FF1200D9CFE5FFE1CF84
:1000C000D9FF0F0EC16E9290E4CFD9FF120017EE48
:1000D000FFF027EEFFF0F86AA68EA69C78EC00F001
:1000E000FFD7010004000000000E00000100000026
:0C00F0005DEC00F04CEC00F0FFD71200BB
:020000040030CA
:010000001DE2
:00000001FF
