:020000040000FA
:1000000004EF00F0000000000F015D6B5C6BC26A42
:10001000C16AC06A5F6B5E6B929089800001310E8D
:10002000026E9A0E036E450E046E042E15EF00F05C
:10003000032E13EF00F0022E11EF00F08990000163
:10004000310E026E9A0E036E450E046E042E26EFDC
:1000500000F0032E24EF00F0022E22EF00F0898042
:100060000001310E026E9A0E036E450E046E042ED0
:1000700037EF00F0032E35EF00F0022E33EF00F0E3
:1000800089900001D70E026E880E036E7E0E046EFC
:10009000042E48EF00F0032E46EF00F0022E44EF4E
:0A00A00000F0000000000DEF00F07A
:020000040030CA
:0E0000005D127F7E008991000FC00FE00F405F
:00000001FF
