:020000040000FA
:040000000EEF00F00F
:040008003FEF00F0D6
:0800180057EF00F00F015D6BD2
:100020005C6BC26AC16AC06A5F6B5E6BF26A9D6A92
:100030009E6A896A926A09D84AD855D8D08EF28CBD
:10004000F28E18D881D8EFD8FCD7949C948E9F8AD2
:100050009F98080EA76E000E7D6E220EAF6E650E85
:10006000AC6E9D9A800EAB6EAB88AE50AE50AE506B
:100070009D8A1200ABB2F5D7ABB4F3D7120006508D
:10008000090A04E1AE50056889821100055005E0B7
:10009000AE500D0A01E1056A110089920450AECFFD
:1000A000E3FF042AE3500D0A01E1062A1100D8CF2C
:1000B00001F0026E0750DB50072AAD6E0D0A03E116
:1000C0000A0601E19D98025001C0D8FF100011EE10
:1000D00080F022EE80F0036A046A056A076A086A03
:1000E000066A0A6A120093949386800E6F6E6E50B1
:1000F000800BFDE00E01F86BF96BFA6BFB6BFC6B90
:10010000FD6B0E01E06BE26BE36BE46BE66BE76BA0
:10011000080EE16FE56F0E01E86BEC6BF06BF46BB2
:10012000E96BED6BF16BF56B0E01070E436FBC0EC7
:10013000446F010E456F0F01708A606A306B6F6A01
:100140006E50C00BFDE112006F6A60BE04D00A0E53
:100150006F6E30AF12000A50090A03E18980609E79
:10016000120062B61ED0740E65BC720E096E085085
:1001700009C0DBFF082A6150E00BE846E846E84684
:1001800091EC01F061501F0BE846E846E8460C6E22
:100190006250E00BE846E846E8460C108DEC01F0B2
:1001A00026D0540E65BC520E096E085009C0DBFF04
:1001B000082A6150F80BE842E842E8428DEC01F071
:1001C0006150070BE842E842E8420C6E6250E00BD7
:1001D000E842E842E8420C126250030B0C108DEC2E
:1001E00001F063508DEC01F064508DEC01F065502E
:1001F0000F0B0D6E3009096E085009C0DBFF082A8D
:100200000D5006E00FEE66F0EE5087D80D2EFCD7AD
:100210000D0E096E085009C0DBFF082A0A2A9D88C6
:100220008990609E1200065001E11200080E6F6E68
:1002300020A708D0060E6F6E10A704D0040E6F6EB4
:1002400000B712000350E350032A0B6E740A0AE051
:100250000B50720A07E00B50540A1AE00B50520A76
:1002600017E045D051D8070BE842E842E842616EFA
:1002700000EE0CF043D80C50F80BE842E842E8429C
:1002800061120C50070BE842E842E842626E22D04D
:1002900000EE0CF033D80C501F0BE846E846E84659
:1002A000616E00EE0CF02AD80C50E00BE846E846F0
:1002B000E84661120C501C0BE846E846E846626EC0
:1002C0000C50030B621262860FEE63F017D80FEE2C
:1002D00064F014D8656A0BB2658C16D807E00D6E11
:1002E00065120FEE66F00AD80D2EFDD7608603501A
:1002F000E350032A0D0AFBE10606120005D8EF6E53
:10030000EF3A02D8EE1212000350E350032A0E6EA9
:100310000F0B0EAC1200090F12000E6E0E3801D832
:100320000E500F0B060FD8B2070F2A0F096E085098
:0803300009C0DBFF082A1200DE
:00000001FF
