:020000040000FA
:0400000020EF7FF07E
:04FE3C0000000000C2
:10FE40000F01D09E9B8C700ED36ED3A425EF7FF054
:10FE5000C26AC16A5C6B000167D895D8C10862E1CB
:10FE6000400EA4D8000EA2D8400EA0D8000E9ED8F6
:10FE7000FE0E9CD8400E9AD8040E98D8000E96D844
:10FE80004B0E94D8426A7FD8F86E7DD8F76E756EA7
:10FE90007AD8F66E746E77D8436E75D8416E00EEE0
:10FEA00000F0446E70D8EE6E442EFCD7425202E051
:10FEB0004E0EE7D700EE00F043B00AD043B20AD0AE
:10FEC00043B413D043B619D043B81CD0550ED9D77C
:10FED000940E1ED8410608E0EECFF5FF0D00412E2E
:10FEE000FBD70A00840E14D8CBD7400E446E09000D
:10FEF000F5505CD8442EFBD7C3D700C073FF040E67
:10FF000007D8BED7010E7F6E000073504FD8B8D708
:10FF10007F6E550E7E6EAA0E7E6E7F827FB2FED7FA
:10FF20007F9412002FD88AD7936A93860F01800E90
:10FF30006F6E6E50800BFDE00E01FF0EF86FFC6FD0
:10FF4000E00EF96FFD6F0E01CC0EE06FE46FE00E76
:10FF5000E16FE56FE86BE96BEC6BED6BF06BF16BF0
:10FF6000F46BF56B0E010F0E436FBC0E446F010E68
:10FF7000456F0F01708A0F016F6A6E50C00BFDE173
:10FF8000000112001200C00E456E466A476A0F015A
:10FF900060BE08D00001472EFAD7462EF8D7452E6E
:10FFA000F6D7C0D76650609E00011200486EC00EA2
:10FFB000456E466A476A0F0120A708D00001472E08
:10FFC000FAD7462EF8D7452EF6D7ACD700014850C1
:10FFD0000F01266F0F01CC0E216FE00E226F0F0173
:10FFE000010E256F0F01080E206F0001640E456E93
:0CFFF000466A462EFED7452EFCD71200B4
:020000040030CA
:040000001412692845
:020005008181F7
:060008000FC00FE00F40E5
:00000001FF
