:020000040000FA
:0400000060EF7FF03E
:04FEBC000000000042
:10FEC0000F01D09EC26AC16A5C6B000167D87AD804
:10FED000C10862E1400E88D8000E86D8400E84D852
:10FEE000000E82D8FE0E80D8C00E7ED8040E7CD8BC
:10FEF000000E7AD84B0E78D8426A64D8F86E62D871
:10FF0000F76E756E5FD8F66E746E5CD8436E5AD815
:10FF1000416E00EE00F0446E55D8EE6E442EFCD7D4
:10FF2000425202E04E0EE7D700EE00F043B00AD096
:10FF300043B20AD043B413D043B619D043B81CD04F
:10FF4000550ED9D7940E1ED8410608E0EECFF5FF26
:10FF50000D00412EFBD70A00840E14D8CBD7400EDB
:10FF6000446E0900F55040D8442EFBD7C3D700C0DB
:10FF700073FF040E07D8BED7010E7F6E00007350CA
:10FF800033D8B8D77F6E550E7E6EAA0E7E6E7F82F6
:10FF90007FB2FED77F94120011D890D70F01080EC0
:10FFA000A76E000E7D6E8A0EAF6E240EAC6E900EA4
:10FFB000AB6EAE50AE50AE50000112000F01AB6AF6
:10FFC00000011200400E456E466A476A9EBA07D08D
:10FFD000472EFCD7462EFAD7452EF8D7DDD70F018E
:10FFE000AE500001422612000F01AD6EACA2FED74A
:04FFF00000011200FA
:020000040030CA
:040000001412692845
:020005008181F7
:060008000FC00FE00F40E5
:00000001FF
