:020000040000FA
:0400000060EF7FF03E
:04FEBC000000000042
:10FEC0000F01D09E9B8C200ED36EC26A5C6B00012A
:10FED00067D879D8C10862E1400E87D8000E85D86E
:10FEE000400E83D8000E81D8FE0E7FD8C00E7DD87C
:10FEF000040E7BD8000E79D84B0E77D8426A63D8AF
:10FF0000F86E61D8F76E756E5ED8F66E746E5BD85B
:10FF1000436E59D8416E00EE00F0446E54D8EE6E38
:10FF2000442EFCD7425202E04E0EE7D700EE00F01E
:10FF300043B00AD043B20AD043B413D043B619D069
:10FF400043B81CD0550ED9D7940E1ED8410608E0F0
:10FF5000EECFF5FF0D00412EFBD70A00840E14D81A
:10FF6000CBD7400E446E0900F5503FD8442EFBD746
:10FF7000C3D700C073FF040E07D8BED7010E7F6E33
:10FF80000000735032D8B8D77F6E550E7E6EAA0E21
:10FF90007E6E7F827FB2FED77F94120010D88ED7FC
:10FFA0000F01080EA76E000E7D6E8A0EAF6E240E36
:10FFB000AC6E900EAB6EAE50AE50000112000F0151
:10FFC000AB6A00011200400E456E466A476A9EBA4F
:10FFD00007D0472EFCD7462EFAD7452EF8D7DED7C6
:10FFE0000F01AE500001422612000F01AD6EACA20F
:06FFF000FED70001120023
:020000040030CA
:040000001412692A43
:020005008181F7
:060008000FC00FE00F40E5
:00000001FF
