:020000040000FA
:0400000060EF3FF07E
:047EBC0000000000C2
:107EC000D09E070EB46E000EC26E0F0EC16E66D845
:107ED00079D8C10861E1200E88D8000E86D8400EFE
:107EE00084D8000E82D87E0E80D8C00E7ED8010EB7
:107EF0007CD8000E7AD84B0E78D8226A63D8F86EF8
:107F000061D8F76E5FD8F66EA96E5CD8236E5AD82A
:107F1000216E00EE00F0246E55D8EE6E242EFCD7B4
:107F2000225202E04E0EE8D700EE00F023B00AD055
:107F300023B20AD023B413D023B619D023B81CD04F
:107F4000550EDAD7940E1ED8210608E0EECFF5FFC5
:107F50000D00212EFBD70A00840E14D8CCD7200E9A
:107F6000246E0900F55041D8242EFBD7C4D700C099
:107F7000A8FF040E07D8BFD7010EA66E0000A850B8
:107F800034D8B9D7A66E550EA76EAA0EA76EA682D4
:107F9000A6B2FED7A694120011D890D70F01080EF2
:107FA000B86E000EB06E150EAF6E240EAC6E900E55
:107FB000AB6EAE50AE50AE50000112000F01AB6A76
:107FC000000112000A0E256E266A276A9EBA08D0A2
:107FD000272EFCD70400262EF9D7252EF7D7DCD77D
:107FE0000F01AE500001222612000F01AD6EACA2AF
:067FF000FED700011200A3
:020000040030CA
:04000000000C1115CA
:020005008081F8
:060008000FC00FE00F40E5
:00000001FF
