:020000040000FA
:0400000060EF7FF03E
:04FEBC000000000042
:10FEC000D09E070EB46E000EC26E0F0EC16E67D8C4
:10FED0007AD8C10862E1400E88D8000E86D8400E5C
:10FEE00084D8000E82D8FE0E80D8C00E7ED8040EB4
:10FEF0007CD8000E7AD84B0E78D8426A64D8F86E57
:10FF000062D8F76EAA6E5FD8F66EA96E5CD8436EA3
:10FF10005AD8416E00EE00F0446E55D8EE6E442E75
:10FF2000FCD7425202E04E0EE7D700EE00F043B09D
:10FF30000AD043B20AD043B413D043B619D043B861
:10FF40001CD0550ED9D7940E1ED8410608E0EECF2E
:10FF5000F5FF0D00412EFBD70A00840E14D8CBD735
:10FF6000400E446E0900F55040D8442EFBD7C3D74D
:10FF700000C0A8FF040E07D8BED7010EA66E000071
:10FF8000A85033D8B8D7A66E550EA76EAA0EA76E86
:10FF9000A682A6B2FED7A694120011D88FD70F0161
:10FFA000080EB86E000EB06E560EAF6E240EAC6E1C
:10FFB000900EAB6EAE50AE50AE50000112000F016D
:10FFC000AB6A00011200280E456E466A476A9EBA67
:10FFD00007D0472EFCD7462EFAD7452EF8D7DDD7C7
:10FFE0000F01AE500001422612000F01AD6EACA20F
:06FFF000FED70001120023
:020000040030CA
:03000100060114E1
:020005008081F8
:060008000FC00FE00F40E5
:00000001FF
