:020000040000FA
:0400000060EF3FF07E
:047EBC0000000000C2
:107EC000D09E070EB46E000EC26E0F0EC16E66D845
:107ED00079D8C10861E1200E87D8000E85D8400E00
:107EE00083D8000E81D87E0E7FD8C00E7DD8010EBB
:107EF0007BD8000E79D84B0E77D8226A63D8F86EFB
:107F000061D8F76E5FD8F66EA96E5CD8236E5AD82A
:107F1000216E00EE00F0246E55D8EE6E242EFCD7B4
:107F2000225202E04E0EE8D700EE00F023B00AD055
:107F300023B20AD023B413D023B619D023B81CD04F
:107F4000550EDAD7940E1ED8210608E0EECFF5FFC5
:107F50000D00212EFBD70A00840E14D8CCD7200E9A
:107F6000246E0900F55040D8242EFBD7C4D700C09A
:107F7000A8FF040E07D8BFD7010EA66E0000A850B8
:107F800033D8B9D7A66E550EA76EAA0EA76EA682D5
:107F9000A6B2FED7A694120011D890D70F01080EF2
:107FA000B86E000EB06E560EAF6E240EAC6E900E14
:107FB000AB6EAE50AE50AE50000112000F01AB6A76
:107FC00000011200280E256E266A276A9EBA07D085
:107FD000272EFCD7262EFAD7252EF8D7DDD70F016E
:107FE000AE500001222612000F01AD6EACA2FED7EA
:047FF000000112007A
:020000040030CA
:03000100060114E1
:020005008081F8
:060008000FC00FE00F40E5
:00000001FF
