:020000040000FA
:04000000A0EF7FF0FE
:08FF38000000000000000000C1
:10FF4000240EAC6ECF0EAF6E900EAB6E41D8C108D2
:10FF50004EE1660EAD6E4B0EAD6E406A39D8F86E4E
:10FF6000456E36D8F76E756E33D8F66E746E30D82F
:10FF7000416E466EE96A2CD8EE6EF56E736E412EB8
:10FF8000FAD726D84E0EE8E145AC03D0040E18D8B7
:10FF900011D0E96A45AE06D00A000ED811D8462E17
:10FFA000FCD708D0940E0CD80A0006D8462EFDD7F0
:10FFB000840E06D87F94CFD7EE50F56E0F00C40C98
:10FFC0007F6E550E7E6EAA0E7E6E7F82000012003E
:10FFD000210E426E436A446A9EAA03D0AE50402668
:10FFE0001200442EF9D7432EF6D7422EF3D7AB9EFC
:02FFF000A3D795
:020000040030CA
:040000005D127F7E90
:020005008981EF
:060008000FC00FE00F40E5
:00000001FF
