:020000040000FA
:04000000A0EF7FF0FE
:08FF38000000000000000000C1
:10FF4000240EAC6ECF0EAF6E900EAB6E46D8C108CD
:10FF500053E1500EAD6E4B0EAD6E006A3ED8F86E9A
:10FF6000076E3BD8F76E746E38D8F66E736E35D860
:10FF7000016E012A00EE09F0F56E2FD8EC6E012E0D
:10FF8000FBD700661FD007AC03D0040E1ED818D0D4
:10FF900007AE04D00C00C40E18D812D0940E15D899
:10FFA0000A00080E056E00EE0AF0080E066EEE500E
:10FFB000F56E0F00062EFBD7840E07D8052EF5D759
:10FFC0007F94C9D74E0EAD6EC8D77F6E550E7E6E2C
:10FFD000AA0E7E6E7F8200001200210E026E036A5E
:10FFE000046A9EAA03D0AE5000261200042EF9D750
:0CFFF000032EF6D7022EF3D7AB9E9ED74F
:020000040030CA
:040000000D927E1EC1
:020005008991DF
:060008000FC00FE00F40E5
:00000001FF
