:0400000055EF00F0C8
:10000800FACF01F0FBCF02F0E9CF03F0EACF04F01A
:10001800E1CF05F0E2CF06F0D9CF07F0DACF08F04C
:10002800F3CF09F0F4CF0AF0F6CF0BF0F7CF0CF0CE
:10003800F8CF0DF0F5CF0EF0F2BAF2A415D0162ACB
:100048001650140AD8B489901650280AD8B4898052
:1000580016503C0AD8B489901650FA0AD8A403D08E
:100068008980000E166EF2940EC0F5FF0DC0F8FFE1
:100078000CC0F7FF0BC0F6FF0AC0F4FF09C0F3FF7E
:1000880008C0DAFF07C0D9FF06C0E2FF05C0E1FFDC
:1000980004C0EAFF03C0E9FF02C0FBFF01C0FAFF8A
:1000A800110077EF00F0AC9CAC8AAC98AC84AB8EB6
:1000B800AB9CAB88A796070EAF6E949C948E9E9AC5
:1000C8001200D580D582D584D596D59AD58CF28A5A
:1000D800F28CF28ED58E12007DEC00F065EC00F00B
:1000E80057EC00F0FFD7166A156A146A000170EF22
:0A00F80000F00F0EC16E929012008E
:00000001FF
