:020000040000FA
:10000000B5EF04F06FEF06F00BEF05F0D9CFE5FF89
:10001000E1CFD9FF00C0E5FF01C0E5FF02C0E5FF69
:1000200003C0E5FF04C0E5FF05C0E5FF06C0E5FF2E
:1000300007C0E5FF08C0E5FF09C0E5FF0AC0E5FF0E
:100040000BC0E5FF0CC0E5FF0DC0E5FF0EC0E5FFEE
:100050000FC0E5FF10C0E5FF11C0E5FF12C0E5FFCE
:1000600013C0E5FF14C0E5FF15C0E5FF16C0E5FFAE
:1000700017C0E5FF18C0E5FF19C0E5FF020EDBCF92
:1000800000F0030EDBCF01F0040EDBCF02F0050E13
:10009000DBCF03F0060EDBCF04F0070EDBCF05F05D
:1000A0000050010F066E000E0120076E000E0220A8
:1000B000086E06C0E9FF07C0F3FF08505EEC06F0CB
:1000C000096E00C0E9FF01C0F3FF02505EEC06F0CC
:1000D0000A6E09500A1802E1E86A8AD003C0E9FFF3
:1000E00004C0F3FF05505EEC06F00A6E0A2A3F0ECC
:1000F0000A160350020F0B6E000E04200C6E000E49
:1001000005200D6E0050020F0E6E000E01200F6EC6
:10011000000E0220106E0350010F116E000E04201D
:10012000126E000E0520136E11C0E9FF12C0F3FF1E
:1001300013505EEC06F0146E0A50141801E13ED024
:1001400000C0E9FF01C0F3FF02505EEC06F0146E40
:100150000950141833E0092A3F0E09160A500B24DF
:10016000146EE86A0C20156EE86A0D20166E0950B0
:100170000E24176EE86A0F20186EE86A1020196EB8
:1001800017C0E9FF18C0F3FF19505EEC06F0176EB8
:1001900017C0E5FF14C0E9FF15C0F3FF16507DEC52
:1001A00006F00AC0E5FF03C0E9FF04C0F3FF0550F5
:1001B0007DEC06F00A2A3F0E0A16B6D709C0E5FF05
:1001C00006C0E9FF07C0F3FF08507DEC06F0006AA7
:1001D000016A0E5009260F5000221050012209C05A
:1001E000E9FF00C0F3FF01505EEC06F0096E095014
:1001F000E4CF19F0E4CF18F0E4CF17F0E4CF16F015
:10020000E4CF15F0E4CF14F0E4CF13F0E4CF12F014
:10021000E4CF11F0E4CF10F0E4CF0FF0E4CF0EF014
:10022000E4CF0DF0E4CF0CF0E4CF0BF0E4CF0AF014
:10023000E4CF09F0E4CF08F0E4CF07F0E4CF06F014
:10024000E4CF05F0E4CF04F0E4CF03F0E4CF02F014
:10025000E4CF01F0E4CF00F0E4CFD9FF1200D9CF12
:10026000E5FFE1CFD9FF00C0E5FF01C0E5FF02C017
:10027000E5FF03C0E5FF04C0E5FF05C0E5FF06C0DC
:10028000E5FF020EDBCF00F0030EDBCF01F0040E22
:10029000DBCF02F00D0EE56E29EC06F0E6520A0EF9
:1002A000E56E29EC06F0E652400EE56E530EE56E63
:1002B000BEEC05F0E652E652200EE56E29EC06F0A3
:1002C000E6523F0EE56E4D0EE56EBEEC05F0E652D1
:1002D000E652200EE56E29EC06F0E65200C0E9FF7A
:1002E00001C0F3FF02505EEC06F0036E0350E56EB2
:1002F000480EE56EBEEC05F0E652E652200EE56EC5
:1003000029EC06F0E6520050010F036E000E0120AA
:10031000046E000E0220056E03C0E9FF04C0F3FF67
:1003200005505EEC06F0036E0350E56E540EE56E6C
:10033000BEEC05F0E652E652200EE56E29EC06F022
:10034000E652200EE56E29EC06F0E652200EE56E30
:1003500029EC06F0E652000E056E0B0E046EF60E4A
:10036000036E0550E56E0450E56E0350E56E51ECEA
:1003700005F0030EE126020E0026000E01220222E5
:10038000036A03500024046EE86A0120056EE86ADF
:100390000220066E04C0E9FF05C0F3FF06505EECC4
:1003A00006F0046E0450E56E8BEC05F0E652200E6C
:1003B000E56E29EC06F0E652032A400E035CE1E309
:1003C0000D0EE56E29EC06F0E6520A0EE56E29ECFC
:1003D00006F0E652E4CF06F0E4CF05F0E4CF04F0F7
:1003E000E4CF03F0E4CF02F0E4CF01F0E4CF00F07B
:1003F000E4CFD9FF1200D9CFE5FFE1CFD9FF00C08C
:10040000E5FF01C0E5FF02C0E5FF03C0E5FF04C052
:10041000E5FF05C0E5FF06C0E5FF07C0E5FF08C032
:10042000E5FF09C0E5FF0AC0E5FF0BC0E5FF0CC012
:10043000E5FF0DC0E5FF0EC0E5FF0FC0E5FF10C0F2
:10044000E5FF020EDBCF00F0030EDBCF01F0040E60
:10045000DBCF02F0050EDBCF03F0060EDBCF04F09E
:10046000070EDBCF05F003C0E9FF04C0F3FF055022
:100470005EEC06F0066E0350010F076E000E0420BE
:10048000086E000E0520096E0350020F0A6E000E62
:1004900004200B6E000E05200C6E00C0E9FF01C0A9
:1004A000F3FF02505EEC06F00D6E002A02E3014AF3
:1004B000022A0DC00EF00D5023E0062A3F0E06164C
:1004C00007C0E9FF08C0F3FF09505EEC06F00D6EAF
:1004D00006500D1813E006500A240D6EE86A0B2032
:1004E0000F6EE86A0C20106E0EC0E5FF0DC0E9FF2C
:1004F0000FC0F3FF10507DEC06F0CFD7E8680AD0AC
:1005000006C0E5FF03C0E9FF04C0F3FF05507DEC22
:1005100006F0010EE4CF10F0E4CF0FF0E4CF0EF0C0
:10052000E4CF0DF0E4CF0CF0E4CF0BF0E4CF0AF011
:10053000E4CF09F0E4CF08F0E4CF07F0E4CF06F011
:10054000E4CF05F0E4CF04F0E4CF03F0E4CF02F011
:10055000E4CF01F0E4CF00F0E4CFD9FF1200006A4D
:1005600088EC06F04DEC06F014EC06F00001606B30
:100570000001616B0001A26B0001A36B005006E15A
:100580000001E4510A0A02E1010E006E0050010A66
:1005900031E10001E451640A2DE1006A000E036EAE
:1005A0000B0E026EE20E016E0350E56E0250E56E18
:1005B0000150E56E51EC05F0030EE126000E036ECE
:1005C0000B0E026EC40E016E000E056E600E046E00
:1005D000800E066E0650E56E0550E56E0450E56E21
:1005E0000350E56E0250E56E0150E56EFBEC01F044
:1005F000060EE126000E026E600E016E800E036E86
:100600000350E56E0250E56E0150E56ECBEC03F051
:10061000030EE126000E026EA20E016E800E036E26
:100620000350E56E0250E56E0150E56E54EC03F0A8
:10063000016E030EE12601C002F00150D8B49ED72E
:1006400002500D0A01E09AD7000E026EA20E016E52
:10065000800E036E000E056E600E046E800E066E38
:100660000650E56E0550E56E0450E56E0350E56EEC
:100670000250E56E0150E56E06EC00F0060EE12634
:10068000000E026E600E016E800E036E0350E56E6A
:100690000250E56E0150E56E0A0EE56E41EC04F085
:1006A000040EE1266BD71200D9CFE5FFE1CFD9FFC9
:1006B00000C0E5FF01C0E5FF02C0E5FF03C0E5FFA4
:1006C00004C0E5FF05C0E5FF06C0E5FF07C0E5FF84
:1006D000020EDBCF00F0030EDBCF01F0040EDBCF08
:1006E00002F09EAA44D000C0E9FF01C0F3FF02500F
:1006F0005EEC06F0036E032A3F0E03160050010F56
:10070000046E000E0120056E000E0220066E04C06D
:10071000E9FF05C0F3FF06505EEC06F0046E0350DF
:10072000041825E0AECF04F00050020F056E000E55
:100730000120066E000E0220076E03500526E86AAF
:100740000622E86A072204C0E5FF05C0E9FF06C0EB
:10075000F3FF07507DEC06F003C0E5FF00C0E9FFA2
:1007600001C0F3FF02507DEC06F0045001D0E86AAE
:10077000E4CF07F0E4CF06F0E4CF05F0E4CF04F0D7
:10078000E4CF03F0E4CF02F0E4CF01F0E4CF00F0D7
:10079000E4CFD9FF1200D9CFE5FFE1CFD9FF00C0E8
:1007A000E5FF01C0E5FF02C0E5FF03C0E5FF04C0AF
:1007B000E5FF05C0E5FF06C0E5FF07C0E5FF020E47
:1007C000DBCF00F0030EDBCF01F0040EDBCF02F035
:1007D0000050010F036E000E0120046E000E022077
:1007E000056E03C0E9FF04C0F3FF05505EEC06F0A0
:1007F000066E00C0E9FF01C0F3FF02505EEC06F098
:10080000076E0750061829E0062A3F0E0616020E4C
:100810000026000E0122022206500026E86A01226C
:10082000E86A022200C0E9FF01C0F3FF02505EEC5B
:1008300006F0006E0050E56EFFEC05F0006EE6522B
:1008400000500BE006C0E5FF03C0E9FF04C0F3FF62
:1008500005507DEC06F0010E01D0E86AE4CF07F008
:10086000E4CF06F0E4CF05F0E4CF04F0E4CF03F0EA
:10087000E4CF02F0E4CF01F0E4CF00F0E4CFD9FF01
:100880001200D9CFE5FFE1CFD9FF00C0E5FF01C0DD
:10089000E5FF02C0E5FF03C0E5FF04C0E5FF05C0BA
:1008A000E5FF06C0E5FF07C0E5FF020EDBCF00F065
:1008B000030EDBCF01F0040EDBCF02F0050EDBCF21
:1008C00003F001C0E9FF02C0F3FF03505EEC06F045
:1008D000046E042A3F0E04160150010F056E000E2F
:1008E0000220066E000E0320076E05C0E9FF06C059
:1008F000F3FF07505EEC06F0056E0450051821E08A
:1009000004C0E5FF01C0E9FF02C0F3FF03507DEC26
:1009100006F0020E0126000E02220322056A066A74
:1009200001500426025005220350062200C0E5FFB4
:1009300004C0E9FF05C0F3FF06507DEC06F0010E90
:1009400001D0E86AE4CF07F0E4CF06F0E4CF05F089
:10095000E4CF04F0E4CF03F0E4CF02F0E4CF01F001
:10096000E4CF00F0E4CFD9FF120017EEFFF027EE3E
:10097000FFF0F86AA68EA69CE9680E0EEA6E006883
:10098000ED6A0050FDE1360EF66E0D0EF76E000EAC
:10099000F86E0900F5CF05F00900F5CF06F034D068
:1009A0000900F5CF00F00900F5CF01F00900F5CFFF
:1009B00002F009000900F5CFE9FF0900F5CFEAFFD1
:1009C000090009000900F5CF03F00900F5CF04F094
:1009D00009000900F6CF07F0F7CF08F0F8CF09F0CB
:1009E00000C0F6FF01C0F7FF02C0F8FF03D0090006
:1009F000F5CFEEFF0306FBE20406F9E207C0F6FFBF
:100A000008C0F7FF09C0F8FF0506CAE20606C8E2FB
:100A1000AFEC02F0FFD7D8CFE5FFE0CFE5FFE56E02
:100A2000F3CFE5FFF4CFE5FFE9CFE5FFEACFE5FF40
:100A3000FACFE5FFFBCFE5FFD9CFE5FFE1CFD9FF47
:100A4000F2AA1BD0F2A419D00001E42B0001E4515A
:100A5000140A01E189900001E451280A01E189802A
:100A60000001E4513C0A01E189900001E451FA0AD5
:100A700003E189800001E46BF294E4CFD9FFE4CF75
:100A8000FBFFE4CFFAFFE4CFEAFFE4CFE9FFE4CFD6
:100A9000F4FFE4CFF3FFE450E4CFE0FFE4CFD8FF6E
:100AA0001000D9CFE5FFE1CFD9FF00C0E5FF01C0BD
:100AB000E5FF02C0E5FF03C0E5FF04C0E5FF020E4D
:100AC000DBCF00F0030EDBCF01F0040EDBCF02F032
:100AD00000C0E9FF01C0F3FF02505EEC06F0036EB8
:100AE000002A02E3014A022A03C004F0035006E090
:100AF0000450E56E29EC06F0E652EAD7E4CF04F0A4
:100B0000E4CF03F0E4CF02F0E4CF01F0E4CF00F053
:100B1000E4CFD9FF1200D9CFE5FFE1CFD9FF00C064
:100B2000E5FF01C0E5FF020EDBCF00F0F00E001480
:100B3000016E01380F0B016E300E01263A0E015C7A
:100B400002E3070E01260150E56E29EC06F0E6529D
:100B50000F0E0016300E0024016E3A0E015C02E307
:100B6000070E01260150E56E29EC06F0E652E4CFAF
:100B700001F0E4CF00F0E4CFD9FF1200D9CFE5FFB8
:100B8000E1CFD9FF00C0E5FF01C0E5FF020EDBCFDA
:100B900000F0030EDBCF01F00050E56E29EC06F00B
:100BA000E6523A0EE56E29EC06F0E6520150E56E8B
:100BB0008BEC05F0E652E4CF01F0E4CF00F0E4CF97
:100BC000D9FF120063697263756C61722062756689
:100BD00066657220697320776F726B696E67210D8D
:100BE0000A00555341525420697320776F726B6924
:100BF0006E67210D0A0020446174613A2000D9CF4C
:100C0000E5FFE1CFD9FF00C0E5FF020EDBCF00F02A
:100C1000ACA204D000C0ADFF010E01D0E86AE4CF61
:100C200000F0E4CFD9FF1200D9CFE5FFE1CFD9FF23
:100C3000949C948EAC84A796070EAF6E9D9A9D9857
:100C4000AB9CAB8EAB88AC9CAC98AC8AE4CFD9FFA4
:100C50001200D9CFE5FFE1CFD9FF00C0E5FF020EBA
:100C6000DBCF00F0ACA2FED700C0ADFFE4CF00F0B8
:100C7000E4CFD9FF1200F2CFEAFFF29E7F9E7F9C65
:100C80007F84E9CF74FFF3CF75FFE4CF73FF92EC5D
:100C900006F07F94EABEF28E1200D9CFE5FFE1CFD5
:100CA000D9FFD580D582D584D596D59AD58CF28AB0
:100CB000F28CF28ED58EE4CFD9FF1200E8AE04D0CC
:100CC000F3CFEAFFEE501200E8BC02EF00F0E9CFEC
:100CD000F6FFF3CFF7FFF86E0900F5501200F2CFE0
:100CE000F6FFF29E7F9E7F9CE9CF74FFF3CF75FFE6
:100CF0007F807350F6BEF28E1200E8AE05D0F3CFBF
:100D0000EAFFE4CFEEFF1200E8BCA2EF06F012000B
:100D1000D9CFE5FFE1CFD9FF0F0EC16E9290E4CF9E
:100D2000D9FF1200550E7E6EAA0E7E6E7F827FB2B4
:100D3000FED7744A752A0100480D0000E400000047
:0A0D4000020000003BEF06F0000087
:020000040030CA
:010000001DE2
:00000001FF
