:020000040000FA
:0C00040004EF00F00F015D6B5C6BC26A42
:10001000C16AC06A5F6B5E6B929021EF00F0A786A9
:10002000AC848A0EAF6E7D6A1200AC6AAB6A0FECCC
:1000300000F09D9A9D98948E948CAC8AAB8EAB8880
:10004000120015EC00F058EF00F00C6EC96EC6BE41
:10005000FF0CC7A029EF00F0C95012000B6E25EF6E
:1000600000F00B6EC66AC79E0B50D8A43CEF00F0A0
:10007000C698C78C4FEF00F00B04D8A444EF00F0F3
:10008000C698C79C4FEF00F0020E0B5CD8A44DEF52
:1000900000F0C688C78C4FEF00F0C688C79C0F0ED3
:1000A0000C14096EF00EC6140910C66EC68A120032
:1000B0009488949A9496929A899A010E0C6E030EE3
:1000C00031EC00F0898AAA0E2EEC00F0CC0E2EEC5A
:0600D00000F063EF00F0F8
:020000040030CA
:0E0000005D127F7E008991000FC00FE00F405F
:00000001FF
