:020000040000FA
:04000000E0EF7EF0BF
:04FDBC000000000043
:10FDC0004B6AACD8476AC80EB8D8C10805E0472AC4
:10FDD0004750020840E0F7D7B40EC1D8830EBFD811
:10FDE000020EBDD84B0EBBD8416AA6D8F86EA4D877
:10FDF000F76E756EA1D8F66E746E9ED84A6E9CD85A
:10FE0000426E436E00EE00F097D8EE6E422EFCD7A5
:10FE1000416677D04AA210D0F8660ED0F7660CD0B3
:10FE2000F6660AD000EE00F0E00EEE6EEF0EEE6E1B
:10FE30007E0EEE6EF00EEE6E00EE00F04AA002D0E6
:10FE40004B68D0D74AB209D04AB448D04AB650D04D
:10FE5000550E85D8C9D76BD8B1D70000F8CF4CF074
:10FE6000F7CF4DF0F6CF4EF0060E446ED8904C32E0
:10FE70004D324E32442EFBD7030E4D5C16E6030E78
:10FE80004D5C03E1F70E4E5C10E6030E4D5C02E0A4
:10FE900001E60BD0030E4D5C05E1FF0E4E5C02E067
:10FEA00001E603D0500E5BD89FD74BA003D0940E31
:10FEB0002BD84B6A400E486E496EEECFF5FF0D0011
:10FEC000482EFBD70A00840E1FD800EE3FF00A0030
:10FED000ED50F56213D0492EFAD784D7EFCF73FFD8
:10FEE000040E12D8010E7F80EF50736207D07AD7CC
:10FEF000EFCFF5FF0C00C40E07D874D7560E2FD8DD
:10FF000073D74E0E2CD870D77F6E550E7E6EAA0E0C
:10FF10007E6E7F827FB2FED77F9412000F01240E87
:10FF2000AC6E220EAF6E900EAB6E000112000F0190
:10FF3000AB6AAC6A00011200C80E446E680E456ED2
:10FF4000466A9EAA05D00F01AE500001412612005C
:10FF5000462EF7D7452EF4D7442EF0D77CD70F0185
:0AFF6000ACA2FED7AD6E0001120046
:020000040030CA
:040000005D127F7E90
:020005008991DF
:060008000FC00FE00F40E5
:00000001FF
