:0400000055EF00F0C8
:10000800FACF24F0FBCF25F0E9CF26F0EACF27F08E
:10001800E1CF28F0E2CF29F0D9CF2AF0DACF2BF0C0
:10002800F3CF2CF0F4CF2DF0F6CF2EF0F7CF2FF042
:10003800F8CF30F0F5CF31F0F2BAF2A415D0232A78
:100048002350140AD8B489902350280AD8B4898038
:1000580023503C0AD8B489902350FA0AD8A403D074
:100068008980000E236EF29431C0F5FF30C0F8FF8E
:100078002FC0F7FF2EC0F6FF2DC0F4FF2CC0F3FFF2
:100088002BC0DAFF2AC0D9FF29C0E2FF28C0E1FF50
:1000980027C0EAFF26C0E9FF25C0FBFF24C0FAFFFE
:0600A8001100E7EF07F074
:100F00000063697263756C617220627566666572F2
:100F100020697320776F726B696E67210D0A005527
:100F20005341525420697320776F726B696E672149
:100F30000D0A0020446174613A200000376E000EF3
:100F4000396E3750376E000E386E375063EC08F04C
:100F500051EC08F036EC08F0376E000E016E375099
:100F6000376E000E026E3750376E000E0001000122
:100F7000606F3750376E000E00010001616F37500F
:100F8000396608D023500A0AD8A404D0376E010E5F
:100F9000396E37503904D8A4F3D72350640AD8A443
:100FA000EFD73DC034F03CC033F026EC08F0382ACF
:100FB00038C035F0720E45EC08F00A0E5CEC08F013
:100FC0000D0E5CEC08F0376E000E396ED8D700EECF
:100FD00060F0220EEE6AE806FDE100EE01F0230E5D
:100FE000EE6AE806FDE1CE0EF66E100EF76E000E0C
:100FF000F86E00EE3AF010EE06F00900F5CFEEFFC5
:10100000E550E150FAE1000EF86E0F0EF76E0001A8
:101010009EEF07F0E8CF33F033380F0B0F0B300F94
:10102000346E390E346402D0070E342634505CEC32
:1010300008F033500F0B300F346E390E346402D089
:10104000070E342634505CEC08F0120003D0355003
:101050005CEC08F033C0F6FF34C0F7FF334A342AA3
:101060000800F5CF35F03566F2D71200949C948EC7
:10107000AC84A796070EAF6E9D9A9D98AB9CAB8EE5
:10108000AB88AC9CAC98AC8A1200E8CF36F03650F6
:101090005CEC08F03A0E5CEC08F035500AEC08F015
:1010A0001200D580D582D584D596D59AD58CF28A72
:1010B000F28CF28ED58E1200E8CF32F0ACA2FED7C1
:1010C00032C0ADFF12000F0EC16E92901200010FE0
:0410D0001F0F330FAC
:020000040020DA
:08000000FFFFFFFFFFFFFFFF00
:020000040030CA
:0E0000005D087F7FFF8991FF0FC00FE00F406A
:00000001FF
